{
  "contractName": "Adoption",
  "abi": [
    {
      "constant": true,
      "inputs": [],
      "name": "get_hub_addr",
      "outputs": [
        {
          "name": "",
          "type": "address"
        }
      ],
      "payable": false,
      "stateMutability": "view",
      "type": "function"
    },
    {
      "constant": true,
      "inputs": [
        {
          "name": "",
          "type": "uint256"
        }
      ],
      "name": "adopters",
      "outputs": [
        {
          "name": "",
          "type": "address"
        }
      ],
      "payable": false,
      "stateMutability": "view",
      "type": "function"
    },
    {
      "constant": true,
      "inputs": [],
      "name": "get_message_data",
      "outputs": [
        {
          "name": "",
          "type": "bytes"
        }
      ],
      "payable": false,
      "stateMutability": "view",
      "type": "function"
    },
    {
      "constant": true,
      "inputs": [],
      "name": "get_sender",
      "outputs": [
        {
          "name": "",
          "type": "address"
        }
      ],
      "payable": false,
      "stateMutability": "view",
      "type": "function"
    },
    {
      "constant": true,
      "inputs": [
        {
          "name": "orig_sender",
          "type": "address"
        },
        {
          "name": "msg_data",
          "type": "bytes"
        }
      ],
      "name": "get_sender_from_data",
      "outputs": [
        {
          "name": "",
          "type": "address"
        }
      ],
      "payable": false,
      "stateMutability": "view",
      "type": "function"
    },
    {
      "constant": true,
      "inputs": [],
      "name": "get_recipient_balance",
      "outputs": [
        {
          "name": "",
          "type": "uint256"
        }
      ],
      "payable": false,
      "stateMutability": "view",
      "type": "function"
    },
    {
      "inputs": [
        {
          "name": "hub",
          "type": "address"
        }
      ],
      "payable": false,
      "stateMutability": "nonpayable",
      "type": "constructor"
    },
    {
      "anonymous": false,
      "inputs": [
        {
          "indexed": false,
          "name": "owner",
          "type": "address"
        },
        {
          "indexed": false,
          "name": "petId",
          "type": "uint256"
        }
      ],
      "name": "adopted",
      "type": "event"
    },
    {
      "constant": false,
      "inputs": [
        {
          "name": "petId",
          "type": "uint256"
        }
      ],
      "name": "adopt",
      "outputs": [
        {
          "name": "",
          "type": "uint256"
        }
      ],
      "payable": false,
      "stateMutability": "nonpayable",
      "type": "function"
    },
    {
      "constant": false,
      "inputs": [],
      "name": "getAdopters",
      "outputs": [
        {
          "name": "",
          "type": "address[4]"
        }
      ],
      "payable": false,
      "stateMutability": "nonpayable",
      "type": "function"
    },
    {
      "constant": true,
      "inputs": [
        {
          "name": "relay",
          "type": "address"
        },
        {
          "name": "from",
          "type": "address"
        },
        {
          "name": "encoded_function",
          "type": "bytes"
        },
        {
          "name": "gas_price",
          "type": "uint256"
        },
        {
          "name": "transaction_fee",
          "type": "uint256"
        }
      ],
      "name": "accept_relayed_call",
      "outputs": [
        {
          "name": "",
          "type": "uint32"
        }
      ],
      "payable": false,
      "stateMutability": "view",
      "type": "function"
    },
    {
      "constant": false,
      "inputs": [
        {
          "name": "relay",
          "type": "address"
        },
        {
          "name": "from",
          "type": "address"
        },
        {
          "name": "encoded_function",
          "type": "bytes"
        },
        {
          "name": "success",
          "type": "bool"
        },
        {
          "name": "used_gas",
          "type": "uint256"
        },
        {
          "name": "transaction_fee",
          "type": "uint256"
        }
      ],
      "name": "post_relayed_call",
      "outputs": [],
      "payable": false,
      "stateMutability": "nonpayable",
      "type": "function"
    }
  ],
  "bytecode": "0x608060405234801561001057600080fd5b50604051602080610f0d8339810180604052810190808051906020019092919050505061004b81610051640100000000026401000000009004565b506102a8565b600073ffffffffffffffffffffffffffffffffffffffff166000809054906101000a900473ffffffffffffffffffffffffffffffffffffffff1673ffffffffffffffffffffffffffffffffffffffff16141515610116576040517f08c379a00000000000000000000000000000000000000000000000000000000081526004018080602001828103825260208152602001807f696e69745f72656c61795f6875623a207268756220616c72656164792073657481525060200191505060405180910390fd5b61012e81610131640100000000026401000000009004565b50565b806000806101000a81548173ffffffffffffffffffffffffffffffffffffffff021916908373ffffffffffffffffffffffffffffffffffffffff16021790555061018861018c640100000000026401000000009004565b5050565b60006101a561027f640100000000026401000000009004565b73ffffffffffffffffffffffffffffffffffffffff166370a08231306040518263ffffffff167c0100000000000000000000000000000000000000000000000000000000028152600401808273ffffffffffffffffffffffffffffffffffffffff1673ffffffffffffffffffffffffffffffffffffffff168152602001915050602060405180830381600087803b15801561023f57600080fd5b505af1158015610253573d6000803e3d6000fd5b505050506040513d602081101561026957600080fd5b8101908080519060200190929190505050905090565b60008060009054906101000a900473ffffffffffffffffffffffffffffffffffffffff16905090565b610c56806102b76000396000f3006080604052600436106100a4576000357c0100000000000000000000000000000000000000000000000000000000900463ffffffff16806304badade146100a95780633de4eb171461010057806343ae80d314610153578063516dea30146101c05780635dea186c146102895780638588b2c51461036657806391719568146103a7578063a8d509ff14610437578063c304e7a41461048e578063ed6cd5d314610557575b600080fd5b3480156100b557600080fd5b506100be610582565b604051808273ffffffffffffffffffffffffffffffffffffffff1673ffffffffffffffffffffffffffffffffffffffff16815260200191505060405180910390f35b34801561010c57600080fd5b506101156105ab565b6040518082600460200280838360005b83811015610140578082015181840152602081019050610125565b5050505090500191505060405180910390f35b34801561015f57600080fd5b5061017e6004803603810190808035906020019092919050505061062c565b604051808273ffffffffffffffffffffffffffffffffffffffff1673ffffffffffffffffffffffffffffffffffffffff16815260200191505060405180910390f35b3480156101cc57600080fd5b50610287600480360381019080803573ffffffffffffffffffffffffffffffffffffffff169060200190929190803573ffffffffffffffffffffffffffffffffffffffff169060200190929190803590602001908201803590602001908080601f01602080910402602001604051908101604052809392919081815260200183838082843782019150505050505091929192908035151590602001909291908035906020019092919080359060200190929190505050610661565b005b34801561029557600080fd5b50610344600480360381019080803573ffffffffffffffffffffffffffffffffffffffff169060200190929190803573ffffffffffffffffffffffffffffffffffffffff169060200190929190803590602001908201803590602001908080601f01602080910402602001604051908101604052809392919081815260200183838082843782019150505050505091929192908035906020019092919080359060200190929190505050610669565b604051808263ffffffff1663ffffffff16815260200191505060405180910390f35b34801561037257600080fd5b5061039160048036038101908080359060200190929190505050610677565b6040518082815260200191505060405180910390f35b3480156103b357600080fd5b506103bc6107ce565b6040518080602001828103825283818151815260200191508051906020019080838360005b838110156103fc5780820151818401526020810190506103e1565b50505050905090810190601f1680156104295780820380516001836020036101000a031916815260200191505b509250505060405180910390f35b34801561044357600080fd5b5061044c61095c565b604051808273ffffffffffffffffffffffffffffffffffffffff1673ffffffffffffffffffffffffffffffffffffffff16815260200191505060405180910390f35b34801561049a57600080fd5b50610515600480360381019080803573ffffffffffffffffffffffffffffffffffffffff169060200190929190803590602001908201803590602001908080601f01602080910402602001604051908101604052809392919081815260200183838082843782019150505050505091929192905050506109a0565b604051808273ffffffffffffffffffffffffffffffffffffffff1673ffffffffffffffffffffffffffffffffffffffff16815260200191505060405180910390f35b34801561056357600080fd5b5061056c610aec565b6040518082815260200191505060405180910390f35b60008060009054906101000a900473ffffffffffffffffffffffffffffffffffffffff16905090565b6105b3610c07565b6001600480602002604051908101604052809291908260048015610622576020028201915b8160009054906101000a900473ffffffffffffffffffffffffffffffffffffffff1673ffffffffffffffffffffffffffffffffffffffff16815260200190600101908083116105d8575b5050505050905090565b60018160048110151561063b57fe5b016000915054906101000a900473ffffffffffffffffffffffffffffffffffffffff1681565b505050505050565b600080905095945050505050565b600080821015801561068a5750600f8211155b15156106fe576040517f08c379a000000000000000000000000000000000000000000000000000000000815260040180806020018281038252600e8152602001807f496c6c6567616c2070657420696400000000000000000000000000000000000081525060200191505060405180910390fd5b61070661095c565b60018360048110151561071557fe5b0160006101000a81548173ffffffffffffffffffffffffffffffffffffffff021916908373ffffffffffffffffffffffffffffffffffffffff1602179055507f5d9f078596b92c610f561b74b83d5c1893cbb0d5764f20ac37eadda985e69a0d61077d61095c565b83604051808373ffffffffffffffffffffffffffffffffffffffff1673ffffffffffffffffffffffffffffffffffffffff1681526020018281526020019250505060405180910390a1819050919050565b606080600080368080601f0160208091040260200160405190810160405280939291908181526020018383808284378201915050505050509150610810610582565b73ffffffffffffffffffffffffffffffffffffffff163373ffffffffffffffffffffffffffffffffffffffff1614156109545760146000369050036040519080825280601f01601f19166020018201604052801561087d5781602001602082028038833980820191505090505b509150600090505b81518110156109535760003682818110151561089d57fe5b905001357f010000000000000000000000000000000000000000000000000000000000000090047f0100000000000000000000000000000000000000000000000000000000000000027effffffffffffffffffffffffffffffffffffffffffffffffffffffffffffff1916828281518110151561091657fe5b9060200101907effffffffffffffffffffffffffffffffffffffffffffffffffffffffffffff1916908160001a9053508080600101915050610885565b5b819250505090565b600061099b336000368080601f0160208091040260200160405190810160405280939291908181526020018383808284378201915050505050506109a0565b905090565b600080606060008592506109b2610582565b73ffffffffffffffffffffffffffffffffffffffff168673ffffffffffffffffffffffffffffffffffffffff161415610ae05760146040519080825280601f01601f191660200182016040528015610a195781602001602082028038833980820191505090505b509150600090505b8151811015610ad4578481835187510301815181101515610a3e57fe5b9060200101517f010000000000000000000000000000000000000000000000000000000000000090047f0100000000000000000000000000000000000000000000000000000000000000028282815181101515610a9757fe5b9060200101907effffffffffffffffffffffffffffffffffffffffffffffffffffffffffffff1916908160001a9053508080600101915050610a21565b610add82610bd0565b92505b82935050505092915050565b6000610af6610bde565b73ffffffffffffffffffffffffffffffffffffffff166370a08231306040518263ffffffff167c0100000000000000000000000000000000000000000000000000000000028152600401808273ffffffffffffffffffffffffffffffffffffffff1673ffffffffffffffffffffffffffffffffffffffff168152602001915050602060405180830381600087803b158015610b9057600080fd5b505af1158015610ba4573d6000803e3d6000fd5b505050506040513d6020811015610bba57600080fd5b8101908080519060200190929190505050905090565b600060148201519050919050565b60008060009054906101000a900473ffffffffffffffffffffffffffffffffffffffff16905090565b6080604051908101604052806004906020820280388339808201915050905050905600a165627a7a72305820f2f7681def5218cebfc8f14e5027a505fa3c58b612dd21e3d77892338dff8c9a0029",
  "source": "pragma solidity ^0.4.24;\n\nimport \"tabookey-gasless/contracts/RelayRecipient.sol\";\n\ncontract Adoption is RelayRecipient {\n    constructor(address hub) public {\n        // this is the only hub I trust to receive calls from\n        init_relay_hub(RelayHub(hub));\n    }\n\n    // array of adopter ethereum wallet addresses\n    // 4 is the number of available pet\n    address[4] public adopters;\n\n    event adopted(address owner, uint petId);\n\n    // adopt one of pet\n    function adopt(uint petId) public returns (uint) {\n        // validation of pet id\n        require(petId >= 0 && petId <= 15, \"Illegal pet id\");\n\n        // get_sender() = adopter ethereum wallet address\n        adopters[petId] = get_sender();\n\n        emit adopted(get_sender(), petId);\n\n        // return same pet id as success confirmation\n        return petId;\n    }\n\n    function getAdopters() public returns (address[4]) {\n        return adopters;\n    }\n\n    function accept_relayed_call(address relay, address from, bytes memory encoded_function, uint gas_price, uint transaction_fee) public view returns(uint32) {\n        return 0;\n    }\n\n    function post_relayed_call(address relay, address from, bytes memory encoded_function, bool success, uint used_gas, uint transaction_fee) public {\n    }\n}\n",
  "sourcePath": "/Users/tomkeidar/workspaces/portis/packages/portis-crypto-puppers/contracts/Adoption.sol",
  "compiler": {
    "name": "solc",
    "version": "0.4.24+commit.e67f0147.Emscripten.clang"
  },
  "schemaVersion": "2.0.1",
  "updatedAt": "2019-03-04T13:51:48.053Z"
}