{
  "contractName": "Adoption",
  "abi": [
    {
      "constant": true,
      "inputs": [
        {
          "name": "origSender",
          "type": "address"
        },
        {
          "name": "msgData",
          "type": "bytes"
        }
      ],
      "name": "getSenderFromData",
      "outputs": [
        {
          "name": "",
          "type": "address"
        }
      ],
      "payable": false,
      "stateMutability": "view",
      "type": "function"
    },
    {
      "constant": true,
      "inputs": [
        {
          "name": "",
          "type": "uint256"
        }
      ],
      "name": "adopters",
      "outputs": [
        {
          "name": "",
          "type": "address"
        }
      ],
      "payable": false,
      "stateMutability": "view",
      "type": "function"
    },
    {
      "constant": true,
      "inputs": [],
      "name": "getSender",
      "outputs": [
        {
          "name": "",
          "type": "address"
        }
      ],
      "payable": false,
      "stateMutability": "view",
      "type": "function"
    },
    {
      "constant": true,
      "inputs": [],
      "name": "getHubAddr",
      "outputs": [
        {
          "name": "",
          "type": "address"
        }
      ],
      "payable": false,
      "stateMutability": "view",
      "type": "function"
    },
    {
      "constant": true,
      "inputs": [],
      "name": "getRecipientBalance",
      "outputs": [
        {
          "name": "",
          "type": "uint256"
        }
      ],
      "payable": false,
      "stateMutability": "view",
      "type": "function"
    },
    {
      "constant": true,
      "inputs": [],
      "name": "getMessageData",
      "outputs": [
        {
          "name": "",
          "type": "bytes"
        }
      ],
      "payable": false,
      "stateMutability": "view",
      "type": "function"
    },
    {
      "inputs": [
        {
          "name": "rhub",
          "type": "address"
        }
      ],
      "payable": false,
      "stateMutability": "nonpayable",
      "type": "constructor"
    },
    {
      "anonymous": false,
      "inputs": [
        {
          "indexed": false,
          "name": "owner",
          "type": "address"
        },
        {
          "indexed": false,
          "name": "petId",
          "type": "uint256"
        }
      ],
      "name": "adopted",
      "type": "event"
    },
    {
      "anonymous": false,
      "inputs": [
        {
          "indexed": true,
          "name": "_from",
          "type": "address"
        },
        {
          "indexed": true,
          "name": "_to",
          "type": "address"
        },
        {
          "indexed": false,
          "name": "_value",
          "type": "uint256"
        }
      ],
      "name": "Transfer",
      "type": "event"
    },
    {
      "constant": false,
      "inputs": [
        {
          "name": "petId",
          "type": "uint256"
        }
      ],
      "name": "adopt",
      "outputs": [
        {
          "name": "",
          "type": "uint256"
        }
      ],
      "payable": false,
      "stateMutability": "nonpayable",
      "type": "function"
    },
    {
      "constant": false,
      "inputs": [],
      "name": "getAdopters",
      "outputs": [
        {
          "name": "",
          "type": "address[4]"
        }
      ],
      "payable": false,
      "stateMutability": "nonpayable",
      "type": "function"
    },
    {
      "constant": true,
      "inputs": [
        {
          "name": "relay",
          "type": "address"
        },
        {
          "name": "from",
          "type": "address"
        },
        {
          "name": "encodedFunction",
          "type": "bytes"
        },
        {
          "name": "transactionFee",
          "type": "uint256"
        },
        {
          "name": "gasPrice",
          "type": "uint256"
        },
        {
          "name": "gasLimit",
          "type": "uint256"
        },
        {
          "name": "nonce",
          "type": "uint256"
        },
        {
          "name": "approvalData",
          "type": "bytes"
        },
        {
          "name": "maxPossibleCharge",
          "type": "uint256"
        }
      ],
      "name": "acceptRelayedCall",
      "outputs": [
        {
          "name": "",
          "type": "uint256"
        },
        {
          "name": "",
          "type": "bytes"
        }
      ],
      "payable": false,
      "stateMutability": "view",
      "type": "function"
    },
    {
      "constant": false,
      "inputs": [
        {
          "name": "context",
          "type": "bytes"
        }
      ],
      "name": "preRelayedCall",
      "outputs": [
        {
          "name": "",
          "type": "bytes32"
        }
      ],
      "payable": false,
      "stateMutability": "nonpayable",
      "type": "function"
    },
    {
      "constant": false,
      "inputs": [
        {
          "name": "context",
          "type": "bytes"
        },
        {
          "name": "success",
          "type": "bool"
        },
        {
          "name": "actualCharge",
          "type": "uint256"
        },
        {
          "name": "preRetVal",
          "type": "bytes32"
        }
      ],
      "name": "postRelayedCall",
      "outputs": [],
      "payable": false,
      "stateMutability": "nonpayable",
      "type": "function"
    }
  ],
  "bytecode": "0x608060405234801561001057600080fd5b50604051602080610f428339810180604052602081101561003057600080fd5b81019080805190602001909291905050506100508161005660201b60201c565b5061019d565b806000806101000a81548173ffffffffffffffffffffffffffffffffffffffff021916908373ffffffffffffffffffffffffffffffffffffffff1602179055506100a46100a860201b60201c565b5050565b60006100b861017460201b60201c565b73ffffffffffffffffffffffffffffffffffffffff166370a08231306040518263ffffffff1660e01b8152600401808273ffffffffffffffffffffffffffffffffffffffff1673ffffffffffffffffffffffffffffffffffffffff16815260200191505060206040518083038186803b15801561013457600080fd5b505afa158015610148573d6000803e3d6000fd5b505050506040513d602081101561015e57600080fd5b8101908080519060200190929190505050905090565b60008060009054906101000a900473ffffffffffffffffffffffffffffffffffffffff16905090565b610d96806101ac6000396000f3fe608060405234801561001057600080fd5b50600436106100a95760003560e01c806380274db71161007157806380274db71461031157806383947ea01461039e5780638588b2c51461055f578063ac570411146105a1578063e06e0e22146105bf578063e20c6d3d14610658576100a9565b80631da97ea3146100ae5780633de4eb17146101c957806343ae80d31461020f5780635e01eb5a1461027d57806374e861d6146102c7575b600080fd5b610187600480360360408110156100c457600080fd5b81019080803573ffffffffffffffffffffffffffffffffffffffff1690602001909291908035906020019064010000000081111561010157600080fd5b82018360208201111561011357600080fd5b8035906020019184600183028401116401000000008311171561013557600080fd5b91908080601f016020809104026020016040519081016040528093929190818152602001838380828437600081840152601f19601f8201169050808301925050505050505091929192905050506106db565b604051808273ffffffffffffffffffffffffffffffffffffffff1673ffffffffffffffffffffffffffffffffffffffff16815260200191505060405180910390f35b6101d1610737565b6040518082600460200280838360005b838110156101fc5780820151818401526020810190506101e1565b5050505090500191505060405180910390f35b61023b6004803603602081101561022557600080fd5b81019080803590602001909291905050506107b8565b604051808273ffffffffffffffffffffffffffffffffffffffff1673ffffffffffffffffffffffffffffffffffffffff16815260200191505060405180910390f35b6102856107eb565b604051808273ffffffffffffffffffffffffffffffffffffffff1673ffffffffffffffffffffffffffffffffffffffff16815260200191505060405180910390f35b6102cf610841565b604051808273ffffffffffffffffffffffffffffffffffffffff1673ffffffffffffffffffffffffffffffffffffffff16815260200191505060405180910390f35b6103886004803603602081101561032757600080fd5b810190808035906020019064010000000081111561034457600080fd5b82018360208201111561035657600080fd5b8035906020019184600183028401116401000000008311171561037857600080fd5b909192939192939050505061086a565b6040518082815260200191505060405180910390f35b6104dd60048036036101208110156103b557600080fd5b81019080803573ffffffffffffffffffffffffffffffffffffffff169060200190929190803573ffffffffffffffffffffffffffffffffffffffff1690602001909291908035906020019064010000000081111561041257600080fd5b82018360208201111561042457600080fd5b8035906020019184600183028401116401000000008311171561044657600080fd5b9091929391929390803590602001909291908035906020019092919080359060200190929190803590602001909291908035906020019064010000000081111561048f57600080fd5b8201836020820111156104a157600080fd5b803590602001918460018302840111640100000000831117156104c357600080fd5b90919293919293908035906020019092919050505061087b565b6040518083815260200180602001828103825283818151815260200191508051906020019080838360005b83811015610523578082015181840152602081019050610508565b50505050905090810190601f1680156105505780820380516001836020036101000a031916815260200191505b50935050505060405180910390f35b61058b6004803603602081101561057557600080fd5b81019080803590602001909291905050506108a8565b6040518082815260200191505060405180910390f35b6105a9610a68565b6040518082815260200191505060405180910390f35b610656600480360360808110156105d557600080fd5b81019080803590602001906401000000008111156105f257600080fd5b82018360208201111561060457600080fd5b8035906020019184600183028401116401000000008311171561062657600080fd5b90919293919293908035151590602001909291908035906020019092919080359060200190929190505050610b2e565b005b610660610b35565b6040518080602001828103825283818151815260200191508051906020019080838360005b838110156106a0578082015181840152602081019050610685565b50505050905090810190601f1680156106cd5780820380516001836020036101000a031916815260200191505b509250505060405180910390f35b6000808390506106e9610841565b73ffffffffffffffffffffffffffffffffffffffff168473ffffffffffffffffffffffffffffffffffffffff16141561072d5761072a836014855103610c6f565b90505b8091505092915050565b61073f610d22565b60016004806020026040519081016040528092919082600480156107ae576020028201915b8160009054906101000a900473ffffffffffffffffffffffffffffffffffffffff1673ffffffffffffffffffffffffffffffffffffffff1681526020019060010190808311610764575b5050505050905090565b600181600481106107c557fe5b016000915054906101000a900473ffffffffffffffffffffffffffffffffffffffff1681565b600061083c336000368080601f016020809104026020016040519081016040528093929190818152602001838380828437600081840152601f19601f820116905080830192505050505050506106db565b905090565b60008060009054906101000a900473ffffffffffffffffffffffffffffffffffffffff16905090565b60006201e24060001b905092915050565b60006060600080905060405180602001604052806000815250915091509b509b9950505050505050505050565b60008082101580156108bb5750600f8211155b61092d576040517f08c379a000000000000000000000000000000000000000000000000000000000815260040180806020018281038252600e8152602001807f496c6c6567616c2070657420696400000000000000000000000000000000000081525060200191505060405180910390fd5b6109356107eb565b6001836004811061094257fe5b0160006101000a81548173ffffffffffffffffffffffffffffffffffffffff021916908373ffffffffffffffffffffffffffffffffffffffff1602179055507f5d9f078596b92c610f561b74b83d5c1893cbb0d5764f20ac37eadda985e69a0d6109aa6107eb565b83604051808373ffffffffffffffffffffffffffffffffffffffff1673ffffffffffffffffffffffffffffffffffffffff1681526020018281526020019250505060405180910390a13073ffffffffffffffffffffffffffffffffffffffff16610a126107eb565b73ffffffffffffffffffffffffffffffffffffffff167fddf252ad1be2c89b69c2b068fc378daa952ba7f163c4a11628f55a4df523b3ef60016040518082815260200191505060405180910390a3819050919050565b6000610a72610cf9565b73ffffffffffffffffffffffffffffffffffffffff166370a08231306040518263ffffffff1660e01b8152600401808273ffffffffffffffffffffffffffffffffffffffff1673ffffffffffffffffffffffffffffffffffffffff16815260200191505060206040518083038186803b158015610aee57600080fd5b505afa158015610b02573d6000803e3d6000fd5b505050506040513d6020811015610b1857600080fd5b8101908080519060200190929190505050905090565b5050505050565b6060806000368080601f016020809104026020016040519081016040528093929190818152602001838380828437600081840152601f19601f820116905080830192505050505050509050610b88610841565b73ffffffffffffffffffffffffffffffffffffffff163373ffffffffffffffffffffffffffffffffffffffff161415610c685760146000369050036040519080825280601f01601f191660200182016040528015610bf55781602001600182028038833980820191505090505b50905060008090505b8151811015610c665760003682818110610c1457fe5b9050013560f81c60f81b828281518110610c2a57fe5b60200101907effffffffffffffffffffffffffffffffffffffffffffffffffffffffffffff1916908160001a9053508080600101915050610bfe565b505b8091505090565b60006014820183511015610cce576040517f08c379a0000000000000000000000000000000000000000000000000000000008152600401808060200182810382526026815260200180610d456026913960400191505060405180910390fd5b60148201915073ffffffffffffffffffffffffffffffffffffffff8284015116905080905092915050565b60008060009054906101000a900473ffffffffffffffffffffffffffffffffffffffff16905090565b604051806080016040528060049060208202803883398082019150509050509056fe475245415445525f4f525f455155414c5f544f5f32305f4c454e4754485f5245515549524544a165627a7a723058205cadb29d26539e4097d5b772941d442d1644e6fefdd4cd1eed58cb801eb16dd70029",
  "source": "pragma solidity ^0.5.0;\n\nimport \"tabookey-gasless/contracts/GsnUtils.sol\";\nimport \"tabookey-gasless/contracts/IRelayHub.sol\";\nimport \"tabookey-gasless/contracts/RelayRecipient.sol\";\n\ncontract Adoption is RelayRecipient {\n    constructor(IRelayHub rhub) public {\n        // this is the only hub I trust to receive calls from\n        setRelayHub(rhub);\n    }\n\n    // array of adopter ethereum wallet addresses\n    // 4 is the number of available pet\n    address[4] public adopters;\n\n    event adopted(address owner, uint petId);\n    event Transfer(address indexed _from, address indexed _to, uint256 _value);\n\n    // adopt one of pet\n    function adopt(uint petId) public returns (uint) {\n        // validation of pet id\n        require(petId >= 0 && petId <= 15, \"Illegal pet id\");\n\n        // getSender() = adopter ethereum wallet address\n        adopters[petId] = getSender();\n\n        emit adopted(getSender(), petId);\n        emit Transfer(getSender(), address(this), 1);\n\n        // return same pet id as success confirmation\n        return petId;\n    }\n\n    function getAdopters() public returns (address[4] memory) {\n        return adopters;\n    }\n\n    function acceptRelayedCall(address relay, address from, bytes calldata encodedFunction, uint256 transactionFee, uint256 gasPrice, uint256 gasLimit, uint256 nonce, bytes calldata approvalData, uint256 maxPossibleCharge) external view returns (uint256, bytes memory) {\n        return (0, \"\");\n    }\n\n    function preRelayedCall(bytes calldata context) /*relayHubOnly*/ external returns (bytes32) {\n        return bytes32(uint(123456));\n    }\n\n    function postRelayedCall(bytes calldata context, bool success, uint actualCharge, bytes32 preRetVal) /*relayHubOnly*/ external {\n    }\n}\n",
  "sourcePath": "/Users/itay/Workspaces/portis/packages/portis-crypto-puppers/contracts/Adoption.sol",
  "compiler": {
    "name": "solc",
    "version": "0.5.8+commit.23d335f2.Emscripten.clang"
  },
  "schemaVersion": "3.0.11",
  "updatedAt": "2019-08-12T07:42:31.750Z",
  "devdoc": {
    "methods": {}
  },
  "userdoc": {
    "methods": {
      "getRecipientBalance()": {
        "notice": "return the balance of this contract. Note that this method will revert on configuration error (invalid relay address)"
      },
      "getSender()": {
        "notice": "return the sender of this call. if the call came through the valid RelayHub, return the original sender. otherwise, return `msg.sender` should be used in the contract anywhere instead of msg.sender"
      }
    }
  }
}