{
  "contractName": "RelayHub",
  "abi": [
    {
      "constant": true,
      "inputs": [],
      "name": "gas_overhead",
      "outputs": [
        {
          "name": "",
          "type": "uint256"
        }
      ],
      "payable": false,
      "stateMutability": "view",
      "type": "function"
    },
    {
      "constant": true,
      "inputs": [
        {
          "name": "",
          "type": "address"
        }
      ],
      "name": "stakes",
      "outputs": [
        {
          "name": "stake",
          "type": "uint256"
        },
        {
          "name": "unstake_delay",
          "type": "uint256"
        },
        {
          "name": "unstake_time",
          "type": "uint256"
        },
        {
          "name": "owner",
          "type": "address"
        },
        {
          "name": "removed",
          "type": "bool"
        }
      ],
      "payable": false,
      "stateMutability": "view",
      "type": "function"
    },
    {
      "constant": true,
      "inputs": [
        {
          "name": "",
          "type": "address"
        }
      ],
      "name": "balances",
      "outputs": [
        {
          "name": "",
          "type": "uint256"
        }
      ],
      "payable": false,
      "stateMutability": "view",
      "type": "function"
    },
    {
      "constant": true,
      "inputs": [
        {
          "name": "",
          "type": "address"
        }
      ],
      "name": "nonces",
      "outputs": [
        {
          "name": "",
          "type": "uint256"
        }
      ],
      "payable": false,
      "stateMutability": "view",
      "type": "function"
    },
    {
      "constant": true,
      "inputs": [],
      "name": "gas_reserve",
      "outputs": [
        {
          "name": "",
          "type": "uint256"
        }
      ],
      "payable": false,
      "stateMutability": "view",
      "type": "function"
    },
    {
      "constant": true,
      "inputs": [
        {
          "name": "",
          "type": "address"
        }
      ],
      "name": "relays",
      "outputs": [
        {
          "name": "timestamp",
          "type": "uint256"
        },
        {
          "name": "transaction_fee",
          "type": "uint256"
        }
      ],
      "payable": false,
      "stateMutability": "view",
      "type": "function"
    },
    {
      "anonymous": false,
      "inputs": [
        {
          "indexed": true,
          "name": "relay",
          "type": "address"
        },
        {
          "indexed": false,
          "name": "stake",
          "type": "uint256"
        }
      ],
      "name": "Staked",
      "type": "event"
    },
    {
      "anonymous": false,
      "inputs": [
        {
          "indexed": true,
          "name": "relay",
          "type": "address"
        },
        {
          "indexed": false,
          "name": "stake",
          "type": "uint256"
        }
      ],
      "name": "Unstaked",
      "type": "event"
    },
    {
      "anonymous": false,
      "inputs": [
        {
          "indexed": true,
          "name": "relay",
          "type": "address"
        },
        {
          "indexed": true,
          "name": "owner",
          "type": "address"
        },
        {
          "indexed": false,
          "name": "transactionFee",
          "type": "uint256"
        },
        {
          "indexed": false,
          "name": "stake",
          "type": "uint256"
        },
        {
          "indexed": false,
          "name": "unstakeDelay",
          "type": "uint256"
        },
        {
          "indexed": false,
          "name": "url",
          "type": "string"
        }
      ],
      "name": "RelayAdded",
      "type": "event"
    },
    {
      "anonymous": false,
      "inputs": [
        {
          "indexed": true,
          "name": "relay",
          "type": "address"
        },
        {
          "indexed": false,
          "name": "unstake_time",
          "type": "uint256"
        }
      ],
      "name": "RelayRemoved",
      "type": "event"
    },
    {
      "anonymous": false,
      "inputs": [
        {
          "indexed": true,
          "name": "relay",
          "type": "address"
        },
        {
          "indexed": true,
          "name": "from",
          "type": "address"
        },
        {
          "indexed": true,
          "name": "target",
          "type": "address"
        },
        {
          "indexed": false,
          "name": "hash",
          "type": "bytes32"
        },
        {
          "indexed": false,
          "name": "success",
          "type": "bool"
        },
        {
          "indexed": false,
          "name": "charge",
          "type": "uint256"
        }
      ],
      "name": "TransactionRelayed",
      "type": "event"
    },
    {
      "anonymous": false,
      "inputs": [
        {
          "indexed": false,
          "name": "src",
          "type": "address"
        },
        {
          "indexed": false,
          "name": "amount",
          "type": "uint256"
        }
      ],
      "name": "Deposited",
      "type": "event"
    },
    {
      "anonymous": false,
      "inputs": [
        {
          "indexed": false,
          "name": "dest",
          "type": "address"
        },
        {
          "indexed": false,
          "name": "amount",
          "type": "uint256"
        }
      ],
      "name": "Withdrawn",
      "type": "event"
    },
    {
      "anonymous": false,
      "inputs": [
        {
          "indexed": true,
          "name": "relay",
          "type": "address"
        },
        {
          "indexed": false,
          "name": "sender",
          "type": "address"
        },
        {
          "indexed": false,
          "name": "amount",
          "type": "uint256"
        }
      ],
      "name": "Penalized",
      "type": "event"
    },
    {
      "constant": true,
      "inputs": [
        {
          "name": "from",
          "type": "address"
        }
      ],
      "name": "get_nonce",
      "outputs": [
        {
          "name": "",
          "type": "uint256"
        }
      ],
      "payable": false,
      "stateMutability": "view",
      "type": "function"
    },
    {
      "constant": false,
      "inputs": [
        {
          "name": "target",
          "type": "address"
        }
      ],
      "name": "depositFor",
      "outputs": [],
      "payable": true,
      "stateMutability": "payable",
      "type": "function"
    },
    {
      "constant": false,
      "inputs": [],
      "name": "deposit",
      "outputs": [],
      "payable": true,
      "stateMutability": "payable",
      "type": "function"
    },
    {
      "constant": false,
      "inputs": [
        {
          "name": "amount",
          "type": "uint256"
        }
      ],
      "name": "withdraw",
      "outputs": [],
      "payable": false,
      "stateMutability": "nonpayable",
      "type": "function"
    },
    {
      "constant": true,
      "inputs": [
        {
          "name": "target",
          "type": "address"
        }
      ],
      "name": "balanceOf",
      "outputs": [
        {
          "name": "",
          "type": "uint256"
        }
      ],
      "payable": false,
      "stateMutability": "view",
      "type": "function"
    },
    {
      "constant": true,
      "inputs": [
        {
          "name": "relay",
          "type": "address"
        }
      ],
      "name": "stakeOf",
      "outputs": [
        {
          "name": "",
          "type": "uint256"
        }
      ],
      "payable": false,
      "stateMutability": "view",
      "type": "function"
    },
    {
      "constant": true,
      "inputs": [
        {
          "name": "relay",
          "type": "address"
        }
      ],
      "name": "ownerOf",
      "outputs": [
        {
          "name": "",
          "type": "address"
        }
      ],
      "payable": false,
      "stateMutability": "view",
      "type": "function"
    },
    {
      "constant": false,
      "inputs": [
        {
          "name": "relay",
          "type": "address"
        },
        {
          "name": "unstake_delay",
          "type": "uint256"
        }
      ],
      "name": "stake",
      "outputs": [],
      "payable": true,
      "stateMutability": "payable",
      "type": "function"
    },
    {
      "constant": true,
      "inputs": [
        {
          "name": "relay",
          "type": "address"
        }
      ],
      "name": "can_unstake",
      "outputs": [
        {
          "name": "",
          "type": "bool"
        }
      ],
      "payable": false,
      "stateMutability": "view",
      "type": "function"
    },
    {
      "constant": false,
      "inputs": [
        {
          "name": "relay",
          "type": "address"
        }
      ],
      "name": "unstake",
      "outputs": [],
      "payable": false,
      "stateMutability": "nonpayable",
      "type": "function"
    },
    {
      "constant": false,
      "inputs": [
        {
          "name": "transaction_fee",
          "type": "uint256"
        },
        {
          "name": "url",
          "type": "string"
        },
        {
          "name": "optional_relay_removal",
          "type": "address"
        }
      ],
      "name": "register_relay",
      "outputs": [],
      "payable": false,
      "stateMutability": "nonpayable",
      "type": "function"
    },
    {
      "constant": false,
      "inputs": [
        {
          "name": "relay",
          "type": "address"
        }
      ],
      "name": "remove_stale_relay",
      "outputs": [],
      "payable": false,
      "stateMutability": "nonpayable",
      "type": "function"
    },
    {
      "constant": false,
      "inputs": [
        {
          "name": "relay",
          "type": "address"
        }
      ],
      "name": "remove_relay_by_owner",
      "outputs": [],
      "payable": false,
      "stateMutability": "nonpayable",
      "type": "function"
    },
    {
      "constant": true,
      "inputs": [
        {
          "name": "relay",
          "type": "address"
        },
        {
          "name": "from",
          "type": "address"
        },
        {
          "name": "to",
          "type": "address"
        },
        {
          "name": "transaction",
          "type": "bytes"
        },
        {
          "name": "transaction_fee",
          "type": "uint256"
        },
        {
          "name": "gas_price",
          "type": "uint256"
        },
        {
          "name": "gas_limit",
          "type": "uint256"
        },
        {
          "name": "nonce",
          "type": "uint256"
        },
        {
          "name": "sig",
          "type": "bytes"
        }
      ],
      "name": "can_relay",
      "outputs": [
        {
          "name": "",
          "type": "uint32"
        }
      ],
      "payable": false,
      "stateMutability": "view",
      "type": "function"
    },
    {
      "constant": false,
      "inputs": [
        {
          "name": "from",
          "type": "address"
        },
        {
          "name": "to",
          "type": "address"
        },
        {
          "name": "encoded_function",
          "type": "bytes"
        },
        {
          "name": "transaction_fee",
          "type": "uint256"
        },
        {
          "name": "gas_price",
          "type": "uint256"
        },
        {
          "name": "gas_limit",
          "type": "uint256"
        },
        {
          "name": "nonce",
          "type": "uint256"
        },
        {
          "name": "sig",
          "type": "bytes"
        }
      ],
      "name": "relay",
      "outputs": [],
      "payable": false,
      "stateMutability": "nonpayable",
      "type": "function"
    },
    {
      "constant": false,
      "inputs": [
        {
          "name": "unsigned_tx1",
          "type": "bytes"
        },
        {
          "name": "sig1",
          "type": "bytes"
        },
        {
          "name": "unsigned_tx2",
          "type": "bytes"
        },
        {
          "name": "sig2",
          "type": "bytes"
        }
      ],
      "name": "penalize_repeated_nonce",
      "outputs": [],
      "payable": false,
      "stateMutability": "nonpayable",
      "type": "function"
    }
  ],
  "bytecode": "0x608060405234801561001057600080fd5b50613c9b806100206000396000f300608060405260043610610128576000357c0100000000000000000000000000000000000000000000000000000000900463ffffffff1680630417ffda1461012d578063114af1221461015857806314afd79e1461019b57806316934fc41461021e57806327e235e3146102c15780632e1a7d4d14610318578063426233601461034557806370a082311461039c5780637ba3b5a1146103f35780637ecebe001461052e5780638136c58514610585578063a386427b1461069c578063aa67c919146107f3578063ab50c19e14610829578063ac871ead146108bc578063adc9772e146108ff578063bb1a96771461093f578063cb8d406f1461096a578063d0e30db0146109c8578063e0d9045a146109d2578063f165d05314610a29578063f2888dbb14610a84575b600080fd5b34801561013957600080fd5b50610142610ac7565b6040518082815260200191505060405180910390f35b34801561016457600080fd5b50610199600480360381019080803573ffffffffffffffffffffffffffffffffffffffff169060200190929190505050610acd565b005b3480156101a757600080fd5b506101dc600480360381019080803573ffffffffffffffffffffffffffffffffffffffff169060200190929190505050610c52565b604051808273ffffffffffffffffffffffffffffffffffffffff1673ffffffffffffffffffffffffffffffffffffffff16815260200191505060405180910390f35b34801561022a57600080fd5b5061025f600480360381019080803573ffffffffffffffffffffffffffffffffffffffff169060200190929190505050610cbe565b604051808681526020018581526020018481526020018373ffffffffffffffffffffffffffffffffffffffff1673ffffffffffffffffffffffffffffffffffffffff168152602001821515151581526020019550505050505060405180910390f35b3480156102cd57600080fd5b50610302600480360381019080803573ffffffffffffffffffffffffffffffffffffffff169060200190929190505050610d21565b6040518082815260200191505060405180910390f35b34801561032457600080fd5b5061034360048036038101908080359060200190929190505050610d39565b005b34801561035157600080fd5b50610386600480360381019080803573ffffffffffffffffffffffffffffffffffffffff169060200190929190505050610ef2565b6040518082815260200191505060405180910390f35b3480156103a857600080fd5b506103dd600480360381019080803573ffffffffffffffffffffffffffffffffffffffff169060200190929190505050610f3e565b6040518082815260200191505060405180910390f35b3480156103ff57600080fd5b5061052c600480360381019080803590602001908201803590602001908080601f0160208091040260200160405190810160405280939291908181526020018383808284378201915050505050509192919290803590602001908201803590602001908080601f0160208091040260200160405190810160405280939291908181526020018383808284378201915050505050509192919290803590602001908201803590602001908080601f0160208091040260200160405190810160405280939291908181526020018383808284378201915050505050509192919290803590602001908201803590602001908080601f0160208091040260200160405190810160405280939291908181526020018383808284378201915050505050509192919290505050610f87565b005b34801561053a57600080fd5b5061056f600480360381019080803573ffffffffffffffffffffffffffffffffffffffff1690602001909291905050506119a0565b6040518082815260200191505060405180910390f35b34801561059157600080fd5b5061069a600480360381019080803573ffffffffffffffffffffffffffffffffffffffff169060200190929190803573ffffffffffffffffffffffffffffffffffffffff169060200190929190803590602001908201803590602001908080601f016020809104026020016040519081016040528093929190818152602001838380828437820191505050505050919291929080359060200190929190803590602001909291908035906020019092919080359060200190929190803590602001908201803590602001908080601f01602080910402602001604051908101604052809392919081815260200183838082843782019150505050505091929192905050506119b8565b005b3480156106a857600080fd5b506107d1600480360381019080803573ffffffffffffffffffffffffffffffffffffffff169060200190929190803573ffffffffffffffffffffffffffffffffffffffff169060200190929190803573ffffffffffffffffffffffffffffffffffffffff169060200190929190803590602001908201803590602001908080601f016020809104026020016040519081016040528093929190818152602001838380828437820191505050505050919291929080359060200190929190803590602001909291908035906020019092919080359060200190929190803590602001908201803590602001908080601f01602080910402602001604051908101604052809392919081815260200183838082843782019150505050505091929192905050506121a9565b604051808263ffffffff1663ffffffff16815260200191505060405180910390f35b610827600480360381019080803573ffffffffffffffffffffffffffffffffffffffff1690602001909291905050506126fc565b005b34801561083557600080fd5b506108ba60048036038101908080359060200190929190803590602001908201803590602001908080601f0160208091040260200160405190810160405280939291908181526020018383808284378201915050505050509192919290803573ffffffffffffffffffffffffffffffffffffffff169060200190929190505050612805565b005b3480156108c857600080fd5b506108fd600480360381019080803573ffffffffffffffffffffffffffffffffffffffff169060200190929190505050612b9c565b005b61093d600480360381019080803573ffffffffffffffffffffffffffffffffffffffff16906020019092919080359060200190929190505050612caf565b005b34801561094b57600080fd5b506109546130a0565b6040518082815260200191505060405180910390f35b34801561097657600080fd5b506109ab600480360381019080803573ffffffffffffffffffffffffffffffffffffffff1690602001909291905050506130a7565b604051808381526020018281526020019250505060405180910390f35b6109d06130cb565b005b3480156109de57600080fd5b50610a13600480360381019080803573ffffffffffffffffffffffffffffffffffffffff1690602001909291905050506130d6565b6040518082815260200191505060405180910390f35b348015610a3557600080fd5b50610a6a600480360381019080803573ffffffffffffffffffffffffffffffffffffffff16906020019092919050505061311e565b604051808215151515815260200191505060405180910390f35b348015610a9057600080fd5b50610ac5600480360381019080803573ffffffffffffffffffffffffffffffffffffffff1690602001909291905050506132b0565b005b61b91681565b6000600160008373ffffffffffffffffffffffffffffffffffffffff1673ffffffffffffffffffffffffffffffffffffffff1681526020019081526020016000206000015414151515610b88576040517f08c379a000000000000000000000000000000000000000000000000000000000815260040180806020018281038252600b8152602001807f6e6f7420612072656c617900000000000000000000000000000000000000000081525060200191505060405180910390fd5b4262069780600160008473ffffffffffffffffffffffffffffffffffffffff1673ffffffffffffffffffffffffffffffffffffffff1681526020019081526020016000206000015401101515610c46576040517f08c379a00000000000000000000000000000000000000000000000000000000081526004018080602001828103825260098152602001807f6e6f74207374616c65000000000000000000000000000000000000000000000081525060200191505060405180910390fd5b610c4f8161347d565b50565b6000600260008373ffffffffffffffffffffffffffffffffffffffff1673ffffffffffffffffffffffffffffffffffffffff16815260200190815260200160002060030160009054906101000a900473ffffffffffffffffffffffffffffffffffffffff169050919050565b60026020528060005260406000206000915090508060000154908060010154908060020154908060030160009054906101000a900473ffffffffffffffffffffffffffffffffffffffff16908060030160149054906101000a900460ff16905085565b60036020528060005260406000206000915090505481565b80600360003373ffffffffffffffffffffffffffffffffffffffff1673ffffffffffffffffffffffffffffffffffffffff1681526020019081526020016000205410151515610df0576040517f08c379a00000000000000000000000000000000000000000000000000000000081526004018080602001828103825260128152602001807f696e73756666696369656e742066756e6473000000000000000000000000000081525060200191505060405180910390fd5b80600360003373ffffffffffffffffffffffffffffffffffffffff1673ffffffffffffffffffffffffffffffffffffffff168152602001908152602001600020600082825403925050819055503373ffffffffffffffffffffffffffffffffffffffff166108fc829081150290604051600060405180830381858888f19350505050158015610e83573d6000803e3d6000fd5b507f7084f5476618d8e60b11ef0d7d3f06914655adb8793e28ff7f018d4c76d505d53382604051808373ffffffffffffffffffffffffffffffffffffffff1673ffffffffffffffffffffffffffffffffffffffff1681526020018281526020019250505060405180910390a150565b6000600260008373ffffffffffffffffffffffffffffffffffffffff1673ffffffffffffffffffffffffffffffffffffffff168152602001908152602001600020600001549050919050565b6000600360008373ffffffffffffffffffffffffffffffffffffffff1673ffffffffffffffffffffffffffffffffffffffff168152602001908152602001600020549050919050565b610f8f613c22565b610f97613c22565b6000806000806000610fa88b613648565b9650610fb389613648565b95508a6040516020018082805190602001908083835b602083101515610fee5780518252602082019150602081019050602083039250610fc9565b6001836020036101000a0380198251168184511680821785525050505050509050019150506040516020818303038152906040526040518082805190602001908083835b6020831015156110575780518252602082019150602081019050602083039250611032565b6001836020036101000a038019825116818451168082178552505050505050905001915050604051809103902094506001858b600081518110151561109857fe5b9060200101517f010000000000000000000000000000000000000000000000000000000000000090047f0100000000000000000000000000000000000000000000000000000000000000027f010000000000000000000000000000000000000000000000000000000000000090046111118d600161384f565b61111c8e602161384f565b604051600081526020016040526040518085600019166000191681526020018460ff1660ff1681526020018360001916600019168152602001826000191660001916815260200194505050505060206040516020810390808403906000865af115801561118d573d6000803e3d6000fd5b505050602060405103519350886040516020018082805190602001908083835b6020831015156111d257805182526020820191506020810190506020830392506111ad565b6001836020036101000a0380198251168184511680821785525050505050509050019150506040516020818303038152906040526040518082805190602001908083835b60208310151561123b5780518252602082019150602081019050602083039250611216565b6001836020036101000a0380198251168184511680821785525050505050509050019150506040518091039020925060018389600081518110151561127c57fe5b9060200101517f010000000000000000000000000000000000000000000000000000000000000090047f0100000000000000000000000000000000000000000000000000000000000000027f010000000000000000000000000000000000000000000000000000000000000090046112f58b600161384f565b6113008c602161384f565b604051600081526020016040526040518085600019166000191681526020018460ff1660ff1681526020018360001916600019168152602001826000191660001916815260200194505050505060206040516020810390808403906000865af1158015611371573d6000803e3d6000fd5b505050602060405103519150856000015187600001511415156113fc576040517f08c379a000000000000000000000000000000000000000000000000000000000815260040180806020018281038252600f8152602001807f446966666572656e74206e6f6e6365000000000000000000000000000000000081525060200191505060405180910390fd5b8173ffffffffffffffffffffffffffffffffffffffff168473ffffffffffffffffffffffffffffffffffffffff1614151561149f576040517f08c379a00000000000000000000000000000000000000000000000000000000081526004018080602001828103825260108152602001807f446966666572656e74207369676e65720000000000000000000000000000000081525060200191505060405180910390fd5b8560a001516040516020018082805190602001908083835b6020831015156114dc57805182526020820191506020810190506020830392506114b7565b6001836020036101000a0380198251168184511680821785525050505050509050019150506040516020818303038152906040526040518082805190602001908083835b6020831015156115455780518252602082019150602081019050602083039250611520565b6001836020036101000a0380198251168184511680821785525050505050509050019150506040518091039020600019168760a001516040516020018082805190602001908083835b6020831015156115b3578051825260208201915060208101905060208303925061158e565b6001836020036101000a0380198251168184511680821785525050505050509050019150506040516020818303038152906040526040518082805190602001908083835b60208310151561161c57805182526020820191506020810190506020830392506115f7565b6001836020036101000a038019825116818451168082178552505050505050905001915050604051809103902060001916141515156116c3576040517f08c379a00000000000000000000000000000000000000000000000000000000081526004018080602001828103825260108152602001807f74782e6461746120697320657175616c0000000000000000000000000000000081525060200191505060405180910390fd5b6000600260008673ffffffffffffffffffffffffffffffffffffffff1673ffffffffffffffffffffffffffffffffffffffff1681526020019081526020016000206000015411151561177d576040517f08c379a000000000000000000000000000000000000000000000000000000000815260040180806020018281038252600e8152602001807f556e7374616b65642072656c617900000000000000000000000000000000000081525060200191505060405180910390fd5b600260008573ffffffffffffffffffffffffffffffffffffffff1673ffffffffffffffffffffffffffffffffffffffff16815260200190815260200160002060030160149054906101000a900460ff16151515611842576040517f08c379a00000000000000000000000000000000000000000000000000000000081526004018080602001828103825260178152602001807f52656c617920616c72656164792070656e616c697a656400000000000000000081525060200191505060405180910390fd5b600260008573ffffffffffffffffffffffffffffffffffffffff1673ffffffffffffffffffffffffffffffffffffffff16815260200190815260200160002060000154905033600260008673ffffffffffffffffffffffffffffffffffffffff1673ffffffffffffffffffffffffffffffffffffffff16815260200190815260200160002060030160006101000a81548173ffffffffffffffffffffffffffffffffffffffff021916908373ffffffffffffffffffffffffffffffffffffffff1602179055508373ffffffffffffffffffffffffffffffffffffffff167fb0595266ccec357806b2691f348b128209f1060a0bda4f5c95f7090730351ff83383604051808373ffffffffffffffffffffffffffffffffffffffff1673ffffffffffffffffffffffffffffffffffffffff1681526020018281526020019250505060405180910390a261199384612b9c565b5050505050505050505050565b60006020528060005260406000206000915090505481565b600060606000805a93506000600160003373ffffffffffffffffffffffffffffffffffffffff1673ffffffffffffffffffffffffffffffffffffffff16815260200190815260200160002060000154111515611a7c576040517f08c379a000000000000000000000000000000000000000000000000000000000815260040180806020018281038252600d8152602001807f556e6b6e6f776e2072656c61790000000000000000000000000000000000000081525060200191505060405180910390fd5b3a8811151515611af4576040517f08c379a00000000000000000000000000000000000000000000000000000000081526004018080602001828103825260118152602001807f496e76616c69642067617320707269636500000000000000000000000000000081525060200191505060405180910390fd5b42600160003373ffffffffffffffffffffffffffffffffffffffff1673ffffffffffffffffffffffffffffffffffffffff16815260200190815260200160002060000181905550611b4c338d8d8d8d8d8d8d8d6121a9565b63ffffffff166000141515611bc9576040517f08c379a00000000000000000000000000000000000000000000000000000000081526004018080602001828103825260108152602001807f63616e5f72656c6179206661696c65640000000000000000000000000000000081525060200191505060405180910390fd5b898c6040516020018083805190602001908083835b602083101515611c035780518252602082019150602081019050602083039250611bde565b6001836020036101000a0380198251168184511680821785525050505050509050018273ffffffffffffffffffffffffffffffffffffffff1673ffffffffffffffffffffffffffffffffffffffff166c010000000000000000000000000281526014019250505060405160208183030381529060405292506201869f611c89858961392d565b10151515611cff576040517f08c379a00000000000000000000000000000000000000000000000000000000081526004018080602001828103825260148152602001807f4e6f7420656e6f756768206761736c656674282900000000000000000000000081525060200191505060405180910390fd5b611d0c878c600086613946565b91506000808d73ffffffffffffffffffffffffffffffffffffffff1673ffffffffffffffffffffffffffffffffffffffff168152602001908152602001600020600081548092919060010191905055508a73ffffffffffffffffffffffffffffffffffffffff1663516dea30338e8d865a8a61b91601038f6040518763ffffffff167c0100000000000000000000000000000000000000000000000000000000028152600401808773ffffffffffffffffffffffffffffffffffffffff1673ffffffffffffffffffffffffffffffffffffffff1681526020018673ffffffffffffffffffffffffffffffffffffffff1673ffffffffffffffffffffffffffffffffffffffff1681526020018060200185151515158152602001848152602001838152602001828103825286818151815260200191508051906020019080838360005b83811015611e69578082015181840152602081019050611e4e565b50505050905090810190601f168015611e965780820380516001836020036101000a031916815260200191505b50975050505050505050600060405180830381600087803b158015611eba57600080fd5b505af1158015611ece573d6000803e3d6000fd5b50505050606489606401895a8761b91601030202811515611eeb57fe5b0490508a73ffffffffffffffffffffffffffffffffffffffff168c73ffffffffffffffffffffffffffffffffffffffff163373ffffffffffffffffffffffffffffffffffffffff167ff54533f66ea195d23acad815f90dba0e665cae15c21343db0cc8cb66744ef2318d6040518082805190602001908083835b602083101515611f8a5780518252602082019150602081019050602083039250611f65565b6001836020036101000a0380198251168184511680821785525050505050509050019150506040518091039020868660405180846000191660001916815260200183151515158152602001828152602001935050505060405180910390a480600360008d73ffffffffffffffffffffffffffffffffffffffff1673ffffffffffffffffffffffffffffffffffffffff168152602001908152602001600020541015151561209f576040517f08c379a00000000000000000000000000000000000000000000000000000000081526004018080602001828103825260128152602001807f696e73756666696369656e742066756e6473000000000000000000000000000081525060200191505060405180910390fd5b80600360008d73ffffffffffffffffffffffffffffffffffffffff1673ffffffffffffffffffffffffffffffffffffffff168152602001908152602001600020600082825403925050819055508060036000600260003373ffffffffffffffffffffffffffffffffffffffff1673ffffffffffffffffffffffffffffffffffffffff16815260200190815260200160002060030160009054906101000a900473ffffffffffffffffffffffffffffffffffffffff1673ffffffffffffffffffffffffffffffffffffffff1673ffffffffffffffffffffffffffffffffffffffff16815260200190815260200160002060008282540192505081905550505050505050505050505050565b600060606000808b8b8b8b8b8b8b3060405160200180807f726c783a000000000000000000000000000000000000000000000000000000008152506004018973ffffffffffffffffffffffffffffffffffffffff1673ffffffffffffffffffffffffffffffffffffffff166c010000000000000000000000000281526014018873ffffffffffffffffffffffffffffffffffffffff1673ffffffffffffffffffffffffffffffffffffffff166c0100000000000000000000000002815260140187805190602001908083835b60208310151561229a5780518252602082019150602081019050602083039250612275565b6001836020036101000a0380198251168184511680821785525050505050509050018681526020018581526020018481526020018381526020018273ffffffffffffffffffffffffffffffffffffffff1673ffffffffffffffffffffffffffffffffffffffff166c01000000000000000000000000028152601401985050505050505050506040516020818303038152906040529250828d6040516020018083805190602001908083835b60208310151561236a5780518252602082019150602081019050602083039250612345565b6001836020036101000a0380198251168184511680821785525050505050509050018273ffffffffffffffffffffffffffffffffffffffff1673ffffffffffffffffffffffffffffffffffffffff166c01000000000000000000000000028152601401925050506040516020818303038152906040526040518082805190602001908083835b60208310151561241557805182526020820191506020810190506020830392506123f0565b6001836020036101000a038019825116818451168082178552505050505050905001915050604051809103902091508160405160200180807f19457468657265756d205369676e6564204d6573736167653a0a333200000000815250601c0182600019166000191681526020019150506040516020818303038152906040526040518082805190602001908083835b6020831015156124c957805182526020820191506020810190506020830392506124a4565b6001836020036101000a038019825116818451168082178552505050505050905001915050604051809103902090506125038c828761395f565b151561251257600193506126ec565b856000808e73ffffffffffffffffffffffffffffffffffffffff1673ffffffffffffffffffffffffffffffffffffffff1681526020019081526020016000205414151561256257600293506126ec565b8a73ffffffffffffffffffffffffffffffffffffffff16635dea186c8e8e8d8c8e6040518663ffffffff167c0100000000000000000000000000000000000000000000000000000000028152600401808673ffffffffffffffffffffffffffffffffffffffff1673ffffffffffffffffffffffffffffffffffffffff1681526020018573ffffffffffffffffffffffffffffffffffffffff1673ffffffffffffffffffffffffffffffffffffffff16815260200180602001848152602001838152602001828103825285818151815260200191508051906020019080838360005b8381101561265e578082015181840152602081019050612643565b50505050905090810190601f16801561268b5780820380516001836020036101000a031916815260200191505b509650505050505050602060405180830381600087803b1580156126ae57600080fd5b505af11580156126c2573d6000803e3d6000fd5b505050506040513d60208110156126d857600080fd5b810190808051906020019092919050505093505b5050509998505050505050505050565b34600360008373ffffffffffffffffffffffffffffffffffffffff1673ffffffffffffffffffffffffffffffffffffffff1681526020019081526020016000206000828254019250508190555034600360008373ffffffffffffffffffffffffffffffffffffffff1673ffffffffffffffffffffffffffffffffffffffff168152602001908152602001600020541015151561279757600080fd5b7f2da466a7b24304f47e87fa2e1e5a81b9831ce54fec19055ce277ca2f39ba42c48134604051808373ffffffffffffffffffffffffffffffffffffffff1673ffffffffffffffffffffffffffffffffffffffff1681526020018281526020019250505060405180910390a150565b600061281033613aa9565b6706f05b59d3b200003373ffffffffffffffffffffffffffffffffffffffff1631101515156128a7576040517f08c379a000000000000000000000000000000000000000000000000000000000815260040180806020018281038252601a8152602001807f62616c616e6365206c6f776572207468616e206d696e696d756d00000000000081525060200191505060405180910390fd5b6000600260003373ffffffffffffffffffffffffffffffffffffffff1673ffffffffffffffffffffffffffffffffffffffff16815260200190815260200160002060020181905550600260003373ffffffffffffffffffffffffffffffffffffffff1673ffffffffffffffffffffffffffffffffffffffff16815260200190815260200160002090508060030160149054906101000a900460ff161515156129dd576040517f08c379a00000000000000000000000000000000000000000000000000000000081526004018080602001828103825260218152602001807f50656e616c697a65642072656c61792063616e6e6f742072657265676973746581526020017f720000000000000000000000000000000000000000000000000000000000000081525060400191505060405180910390fd5b604080519081016040528042815260200185815250600160003373ffffffffffffffffffffffffffffffffffffffff1673ffffffffffffffffffffffffffffffffffffffff16815260200190815260200160002060008201518160000155602082015181600101559050508060030160009054906101000a900473ffffffffffffffffffffffffffffffffffffffff1673ffffffffffffffffffffffffffffffffffffffff163373ffffffffffffffffffffffffffffffffffffffff167f85b3ae3aae9d3fcb31142fbd8c3b4722d57825b8edd6e1366e69204afa5a0dfa8684600001548560010154886040518085815260200184815260200183815260200180602001828103825283818151815260200191508051906020019080838360005b83811015612b19578082015181840152602081019050612afe565b50505050905090810190601f168015612b465780820380516001836020036101000a031916815260200191505b509550505050505060405180910390a3600073ffffffffffffffffffffffffffffffffffffffff168273ffffffffffffffffffffffffffffffffffffffff16141515612b9657612b9582610acd565b5b50505050565b803373ffffffffffffffffffffffffffffffffffffffff16600260008373ffffffffffffffffffffffffffffffffffffffff1673ffffffffffffffffffffffffffffffffffffffff16815260200190815260200160002060030160009054906101000a900473ffffffffffffffffffffffffffffffffffffffff1673ffffffffffffffffffffffffffffffffffffffff16141515612ca2576040517f08c379a00000000000000000000000000000000000000000000000000000000081526004018080602001828103825260098152602001807f6e6f74206f776e6572000000000000000000000000000000000000000000000081525060200191505060405180910390fd5b612cab8261347d565b5050565b600073ffffffffffffffffffffffffffffffffffffffff16600260008473ffffffffffffffffffffffffffffffffffffffff1673ffffffffffffffffffffffffffffffffffffffff16815260200190815260200160002060030160009054906101000a900473ffffffffffffffffffffffffffffffffffffffff1673ffffffffffffffffffffffffffffffffffffffff161480612dd957503373ffffffffffffffffffffffffffffffffffffffff16600260008473ffffffffffffffffffffffffffffffffffffffff1673ffffffffffffffffffffffffffffffffffffffff16815260200190815260200160002060030160009054906101000a900473ffffffffffffffffffffffffffffffffffffffff1673ffffffffffffffffffffffffffffffffffffffff16145b1515612e4d576040517f08c379a00000000000000000000000000000000000000000000000000000000081526004018080602001828103825260098152602001807f6e6f74206f776e6572000000000000000000000000000000000000000000000081525060200191505060405180910390fd5b33600260008473ffffffffffffffffffffffffffffffffffffffff1673ffffffffffffffffffffffffffffffffffffffff16815260200190815260200160002060030160006101000a81548173ffffffffffffffffffffffffffffffffffffffff021916908373ffffffffffffffffffffffffffffffffffffffff16021790555034600260008473ffffffffffffffffffffffffffffffffffffffff1673ffffffffffffffffffffffffffffffffffffffff16815260200190815260200160002060000160008282540192505081905550600260008373ffffffffffffffffffffffffffffffffffffffff1673ffffffffffffffffffffffffffffffffffffffff168152602001908152602001600020600101548110151515612ffe576040517f08c379a00000000000000000000000000000000000000000000000000000000081526004018080602001828103825260218152602001807f756e7374616b655f64656c61792063616e6e6f7420626520646563726561736581526020017f640000000000000000000000000000000000000000000000000000000000000081525060400191505060405180910390fd5b80600260008473ffffffffffffffffffffffffffffffffffffffff1673ffffffffffffffffffffffffffffffffffffffff1681526020019081526020016000206001018190555061304e82613aa9565b8173ffffffffffffffffffffffffffffffffffffffff167f9e71bc8eea02a63969f509818f2dafb9254532904319f9dbda79b67bd34a5f3d346040518082815260200191505060405180910390a25050565b6201869f81565b60016020528060005260406000206000915090508060000154908060010154905082565b6130d4336126fc565b565b60008060008373ffffffffffffffffffffffffffffffffffffffff1673ffffffffffffffffffffffffffffffffffffffff168152602001908152602001600020549050919050565b60003373ffffffffffffffffffffffffffffffffffffffff16600260008473ffffffffffffffffffffffffffffffffffffffff1673ffffffffffffffffffffffffffffffffffffffff16815260200190815260200160002060030160009054906101000a900473ffffffffffffffffffffffffffffffffffffffff1673ffffffffffffffffffffffffffffffffffffffff161415156131c057600090506132ab565b6000600160008473ffffffffffffffffffffffffffffffffffffffff1673ffffffffffffffffffffffffffffffffffffffff1681526020019081526020016000206000015414158061325457506000600260008473ffffffffffffffffffffffffffffffffffffffff1673ffffffffffffffffffffffffffffffffffffffff16815260200190815260200160002060020154145b1561326257600090506132ab565b42600260008473ffffffffffffffffffffffffffffffffffffffff1673ffffffffffffffffffffffffffffffffffffffff16815260200190815260200160002060020154111590505b919050565b6000816132bc8161311e565b15156132c757600080fd5b600260008473ffffffffffffffffffffffffffffffffffffffff1673ffffffffffffffffffffffffffffffffffffffff1681526020019081526020016000206000015491503373ffffffffffffffffffffffffffffffffffffffff166108fc600260008673ffffffffffffffffffffffffffffffffffffffff1673ffffffffffffffffffffffffffffffffffffffff168152602001908152602001600020600001549081150290604051600060405180830381858888f19350505050158015613394573d6000803e3d6000fd5b50600260008473ffffffffffffffffffffffffffffffffffffffff1673ffffffffffffffffffffffffffffffffffffffff168152602001908152602001600020600080820160009055600182016000905560028201600090556003820160006101000a81549073ffffffffffffffffffffffffffffffffffffffff02191690556003820160146101000a81549060ff021916905550508273ffffffffffffffffffffffffffffffffffffffff167f0f5bb82176feb1b5e747e28471aa92156a04d9f3ab9f45f28e2d704232b93f75836040518082815260200191505060405180910390a2505050565b600160008273ffffffffffffffffffffffffffffffffffffffff1673ffffffffffffffffffffffffffffffffffffffff1681526020019081526020016000206000808201600090556001820160009055505042600260008373ffffffffffffffffffffffffffffffffffffffff1673ffffffffffffffffffffffffffffffffffffffff1681526020019081526020016000206001015401600260008373ffffffffffffffffffffffffffffffffffffffff1673ffffffffffffffffffffffffffffffffffffffff168152602001908152602001600020600201819055506001600260008373ffffffffffffffffffffffffffffffffffffffff1673ffffffffffffffffffffffffffffffffffffffff16815260200190815260200160002060030160146101000a81548160ff0219169083151502179055508073ffffffffffffffffffffffffffffffffffffffff167f5490afc1d818789c8b3d5d63bce3d2a3327d0bba4efb5a7751f783dc977d7d11600260008473ffffffffffffffffffffffffffffffffffffffff1673ffffffffffffffffffffffffffffffffffffffff168152602001908152602001600020600201546040518082815260200191505060405180910390a250565b613650613c22565b73__RLPReader_____________________________63781cebc1836040518263ffffffff167c01000000000000000000000000000000000000000000000000000000000281526004018080602001828103825283818151815260200191508051906020019080838360005b838110156136d65780820151818401526020810190506136bb565b50505050905090810190601f1680156137035780820380516001836020036101000a031916815260200191505b509250505060006040518083038186803b15801561372057600080fd5b505af4158015613734573d6000803e3d6000fd5b505050506040513d6000823e3d601f19601f8201168201806040525060c081101561375e57600080fd5b81019080805190602001909291908051906020019092919080519060200190929190805190602001909291908051906020019092919080516401000000008111156137a857600080fd5b828101905060208101848111156137be57600080fd5b81518560018202830111640100000000821117156137db57600080fd5b5050929190505050809050866000018760200188604001896060018a6080018b60a001869052868152508673ffffffffffffffffffffffffffffffffffffffff1673ffffffffffffffffffffffffffffffffffffffff16815250868152508681525086815250505050505050809050919050565b60008060008090505b6020811015613922576008810260ff7f0100000000000000000000000000000000000000000000000000000000000000028683870181518110151561389957fe5b9060200101517f010000000000000000000000000000000000000000000000000000000000000090047f010000000000000000000000000000000000000000000000000000000000000002167effffffffffffffffffffffffffffffffffffffffffffffffffffffffffffff1916600019169060020a9004821791508080600101915050613858565b819250505092915050565b600082821115151561393b57fe5b818303905092915050565b600080600083516020850186888af19050949350505050565b600060018383600081518110151561397357fe5b9060200101517f010000000000000000000000000000000000000000000000000000000000000090047f0100000000000000000000000000000000000000000000000000000000000000027f010000000000000000000000000000000000000000000000000000000000000090046139ec85600161384f565b6139f786602161384f565b604051600081526020016040526040518085600019166000191681526020018460ff1660ff1681526020018360001916600019168152602001826000191660001916815260200194505050505060206040516020810390808403906000865af1158015613a68573d6000803e3d6000fd5b5050506020604051035173ffffffffffffffffffffffffffffffffffffffff168473ffffffffffffffffffffffffffffffffffffffff161490509392505050565b6001600260008373ffffffffffffffffffffffffffffffffffffffff1673ffffffffffffffffffffffffffffffffffffffff1681526020019081526020016000206000015410151515613b64576040517f08c379a00000000000000000000000000000000000000000000000000000000081526004018080602001828103825260188152602001807f7374616b65206c6f776572207468616e206d696e696d756d000000000000000081525060200191505060405180910390fd5b6000600260008373ffffffffffffffffffffffffffffffffffffffff1673ffffffffffffffffffffffffffffffffffffffff1681526020019081526020016000206001015410151515613c1f576040517f08c379a00000000000000000000000000000000000000000000000000000000081526004018080602001828103825260188152602001807f64656c6179206c6f776572207468616e206d696e696d756d000000000000000081525060200191505060405180910390fd5b50565b60c060405190810160405280600081526020016000815260200160008152602001600073ffffffffffffffffffffffffffffffffffffffff168152602001600081526020016060815250905600a165627a7a723058208efba6c98c5f7a4c9ecf602da669c74929c4b52a56f427ad899012090d73c7330029",
  "source": "pragma solidity >=0.4.0 <0.6.0;\n\nimport \"./RelayHubApi.sol\";\nimport \"./RelayRecipient.sol\";\nimport \"./RLPReader.sol\";\n\ncontract RelayHub is RelayHubApi {\n\n    // Anyone can call certain functions in this singleton and trigger relay processes.\n\n    uint constant timeout = 5 days; // XXX TBD\n    uint constant minimum_stake = 1;    // XXX TBD\n    uint constant minimum_unstake_delay = 0;    // XXX TBD\n    uint constant minimum_relay_balance = 0.5 ether;  // XXX TBD - can't register/refresh below this amount.\n    uint constant low_ether = 1 ether;    // XXX TBD - relay still works, but owner should be notified to fund the relay soon.\n    uint constant public gas_reserve = 99999; // XXX TBD - calculate how much reserve we actually need, to complete the post-call part of relay().\n    uint constant public gas_overhead = 47382;  // the total gas overhead of relay(), before the first gasleft() and after the last gasleft(). Assume that relay has non-zero balance (costs 15'000 more otherwise).\n\n    mapping (address => uint) public nonces;    // Nonces of senders, since their ether address nonce may never change.\n\n    struct Relay {\n        uint timestamp;\n        uint transaction_fee;\n    }\n\n    mapping (address => Relay) public relays;\n\n    struct Stake {\n        uint stake;             // Size of the stake\n        uint unstake_delay;     // How long between removal and unstaking\n        uint unstake_time;      // When is the stake released.  Non-zero means that the relay has been removed and is waiting for unstake.\n        address owner;\n        bool removed;\n    }\n\n    mapping (address => Stake) public stakes;\n    mapping (address => uint) public balances;\n\n    function validate_stake(address relay) private view {\n        require(stakes[relay].stake >= minimum_stake,\"stake lower than minimum\");  // Has enough stake?\n        require(stakes[relay].unstake_delay >= minimum_unstake_delay,\"delay lower than minimum\");  // Locked for enough time?\n    }\n    modifier lock_stake() {\n        validate_stake(msg.sender);\n        require(msg.sender.balance >= minimum_relay_balance,\"balance lower than minimum\");\n        stakes[msg.sender].unstake_time = 0;    // Activate the lock\n        _;\n    }\n\n    function safe_add(uint a, uint b) internal pure returns (uint) {\n        uint256 c = a + b;\n        assert(c >= a);\n        return c;\n    }\n\n    function safe_sub(uint a, uint b) internal pure returns (uint) {\n        assert(b <= a);\n        return a - b;\n    }\n\n    function get_nonce(address from) view external returns (uint) {\n        return nonces[from];\n    }\n\n    /**\n     * deposit ether for a contract.\n     * This ether will be used to repay relay calls into this contract.\n     * Contract owner should monitor the balance of his contract, and make sure\n     * to deposit more, otherwise the contract won't be able to receive relayed calls.\n     * Unused deposited can be withdrawn with `withdraw()`\n     */\n    function depositFor(address target) public payable {\n        balances[target] += msg.value;\n        require (balances[target] >= msg.value);\n        emit Deposited(target, msg.value);\n    }\n\n    function deposit() public payable {\n        depositFor(msg.sender);\n    }\n\n    /**\n     * withdraw funds.\n     * caller is either a relay owner, withdrawing collected transaction fees.\n     * or a RelayRecipient contract, withdrawing its deposit.\n     * note that while everyone can `depositFor()` a contract, only\n     * the contract itself can withdraw its funds.\n     */\n    function withdraw(uint amount) public {\n        require(balances[msg.sender] >= amount, \"insufficient funds\");\n        balances[msg.sender] -= amount;\n        msg.sender.transfer(amount);\n        emit Withdrawn(msg.sender, amount);\n    }\n\n    //check the deposit balance of a contract.\n    function balanceOf(address target) external view returns (uint256) {\n        return balances[target];\n    }\n\n    function stakeOf(address relay) external view returns (uint256) {\n        return stakes[relay].stake;\n    }\n\n    function ownerOf(address relay) external view returns (address) {\n        return stakes[relay].owner;\n    }\n\n\n    function stake(address relay, uint unstake_delay) external payable {\n        // Create or increase the stake and unstake_delay\n        require(stakes[relay].owner == address(0) || stakes[relay].owner == msg.sender, \"not owner\");\n        stakes[relay].owner = msg.sender;\n        stakes[relay].stake += msg.value;\n        // Make sure that the relay doesn't decrease his delay if already registered\n        require(unstake_delay >= stakes[relay].unstake_delay, \"unstake_delay cannot be decreased\");\n        stakes[relay].unstake_delay = unstake_delay;\n        validate_stake(relay);\n        emit Staked(relay, msg.value);\n    }\n\n    function can_unstake(address relay) public view returns(bool) {\n        // Only owner can unstake\n        if (stakes[relay].owner != msg.sender) {\n            return false;\n        }\n        if (relays[relay].timestamp != 0 || stakes[relay].unstake_time == 0)  // Relay still registered so unstake time hasn't been set\n            return false;\n        return stakes[relay].unstake_time <= now;  // Finished the unstaking delay period?\n    }\n\n    modifier unstake_allowed(address relay) {\n        require(can_unstake(relay));\n        _;\n    }\n\n    function unstake(address relay) public unstake_allowed(relay) {\n        uint amount = stakes[relay].stake;\n        msg.sender.transfer(stakes[relay].stake);\n        delete stakes[relay];\n        emit Unstaked(relay, amount);\n    }\n\n    function register_relay(uint transaction_fee, string memory url, address optional_relay_removal) public lock_stake {\n        // Anyone with a stake can register a relay.  Apps choose relays by their transaction fee, stake size and unstake delay,\n        // optionally crossed against a blacklist.  Apps verify the relay's action in realtime.\n\n        Stake storage relay_stake = stakes[msg.sender];\n        // Penalized relay cannot reregister\n        require(!relay_stake.removed, \"Penalized relay cannot reregister\");\n        relays[msg.sender] = Relay(now, transaction_fee);\n        emit RelayAdded(msg.sender, relay_stake.owner, transaction_fee, relay_stake.stake, relay_stake.unstake_delay, url);\n\n        // @optional_relay_removal is unrelated to registration, but incentivizes relays to help purging stale relays from the list.\n        // Providing a stale relay will cause its removal, and offset the gas price of registration.\n        if (optional_relay_removal != address(0))\n            remove_stale_relay(optional_relay_removal);\n    }\n\n    function remove_relay_internal(address relay) internal {\n        delete relays[relay];\n        stakes[relay].unstake_time = stakes[relay].unstake_delay + now;   // Start the unstake counter\n        stakes[relay].removed = true;\n        emit RelayRemoved(relay, stakes[relay].unstake_time);\n    }\n\n    function remove_stale_relay(address relay) public { // Trustless, assumed to be called by anyone willing to pay for the gas.  Verifies staleness.  Normally called by relays to keep the list current.\n        require(relays[relay].timestamp != 0, \"not a relay\");  // Relay exists?\n        require(relays[relay].timestamp + timeout < now, \"not stale\");  // Did relay send a keeplive recently?\n        // Anyone can remove a stale relay.\n        remove_relay_internal(relay);\n    }\n\n    modifier relay_owner(address relay) {\n        require(stakes[relay].owner == msg.sender, \"not owner\");\n        _;\n    }\n\n    function remove_relay_by_owner(address relay) public relay_owner(relay) {\n        // The relay's owner can remove it at any time, to start the unstake countdown.\n        remove_relay_internal(relay);\n    }\n\n    function check_sig(address signer, bytes32 hash, bytes memory sig) pure internal returns (bool) {\n        // Check if @v,@r,@s are a valid signature of @signer for @hash\n        return signer == ecrecover(hash, uint8(sig[0]), bytesToBytes32(sig,1), bytesToBytes32(sig,33));\n    }\n\n\t//check if the Hub can accept this relayed operation.\n\t// it validates the caller's signature and nonce, and then delegates to the destination's accept_relayed_call\n\t// for contract-specific checks.\n\t// returns \"0\" if the relay is valid. other values represent errors.\n\t// values 1..10 are reserved for can_relay. other values can be used by accept_relayed_call of target contracts.\n    function can_relay(address relay, address from, RelayRecipient to, bytes memory transaction, uint transaction_fee, uint gas_price, uint gas_limit, uint nonce, bytes memory sig) public view returns(uint32) {\n        bytes memory packed = abi.encodePacked(\"rlx:\", from, to, transaction, transaction_fee, gas_price, gas_limit, nonce, address(this));\n        bytes32 hashed_message = keccak256(abi.encodePacked(packed, relay));\n        bytes32 signed_message = keccak256(abi.encodePacked(\"\\x19Ethereum Signed Message:\\n32\", hashed_message));\n        if (!check_sig(from, signed_message,  sig))  // Verify the sender's signature on the transaction\n            return 1;   // @from hasn't signed the transaction properly\n        if (nonces[from] != nonce)\n            return 2;   // Not a current transaction.  May be a replay attempt.\n        // XXX check @to's balance, roughly estimate if it has enough balance to pay the transaction fee.  It's the relay's responsibility to verify, but check here too.\n        return to.accept_relayed_call(relay, from, transaction, gas_price, transaction_fee); // Check to.accept_relayed_call, see if it agrees to accept the charges.\n    }\n\n    /**\n     * relay a transaction.\n     * @param from the client originating the request.\n     * @param to the target RelayRecipient contract.\n     * @param encoded_function the function call to relay.\n     * @param transaction_fee fee (%) the relay takes over actual gas cost.\n     * @param gas_price gas price the client is willing to pay\n     * @param gas_limit limit the client want to put on its transaction\n     * @param transaction_fee fee (%) the relay takes over actual gas cost.\n     * @param nonce sender's nonce (in nonces[])\n     * @param sig client's signature over all params\n     */\n    function relay(address from, address to, bytes memory encoded_function, uint transaction_fee, uint gas_price, uint gas_limit, uint nonce, bytes memory sig) public {\n        uint initial_gas = gasleft();\n        require(relays[msg.sender].timestamp > 0, \"Unknown relay\");  // Must be from a known relay\n        require(gas_price <= tx.gasprice, \"Invalid gas price\");      // Relay must use the gas price set by the signer\n        relays[msg.sender].timestamp = now;\n\n        require(0 == can_relay(msg.sender, from, RelayRecipient(to), encoded_function, transaction_fee, gas_price, gas_limit, nonce, sig), \"can_relay failed\");\n\n        // ensure that the last bytes of @transaction are the @from address.\n        // Recipient will trust this reported sender when msg.sender is the known RelayHub.\n        bytes memory transaction = abi.encodePacked(encoded_function,from);\n\n        // gas_reserve must be high enough to complete relay()'s post-call execution.\n        require(safe_sub(initial_gas,gas_limit) >= gas_reserve, \"Not enough gasleft()\");\n        bool success = executeCallWithGas(gas_limit, to, 0, transaction); // transaction must end with @from at this point\n        nonces[from]++;\n        RelayRecipient(to).post_relayed_call(msg.sender, from, encoded_function, success, (gas_overhead+initial_gas-gasleft()), transaction_fee );\n        // Relay transaction_fee is in %.  E.g. if transaction_fee=40, payment will be 1.4*used_gas.\n        uint charge = (gas_overhead+initial_gas-gasleft())*gas_price*(100+transaction_fee)/100;\n        emit TransactionRelayed(msg.sender, from, to, keccak256(encoded_function), success, charge);\n        require(balances[to] >= charge, \"insufficient funds\");\n        balances[to] -= charge;\n        balances[stakes[msg.sender].owner] += charge;\n    }\n\n    function executeCallWithGas(uint allowed_gas, address to, uint256 value, bytes memory data) internal returns (bool success) {\n        assembly {\n            success := call(allowed_gas, to, value, add(data, 0x20), mload(data), 0, 0)\n        }\n    }\n\n    struct Transaction {\n        uint nonce;\n        uint gas_price;\n        uint gas_limit;\n        address to;\n        uint value;\n        bytes data;\n    }\n\n    function decode_transaction (bytes memory raw_transaction) private pure returns ( Transaction memory transaction) {\n        (transaction.nonce,transaction.gas_price,transaction.gas_limit,transaction.to, transaction.value, transaction.data) = RLPReader.decode_transaction(raw_transaction);\n        return transaction;\n\n    }\n\n    function penalize_repeated_nonce(bytes memory unsigned_tx1, bytes memory sig1 ,bytes memory unsigned_tx2, bytes memory sig2) public {\n        // Can be called by anyone.  \n        // If a relay attacked the system by signing multiple transactions with the same nonce (so only one is accepted), anyone can grab both transactions from the blockchain and submit them here.\n        // Check whether unsigned_tx1 != unsigned_tx2, that both are signed by the same address, and that unsigned_tx1.nonce == unsigned_tx2.nonce.  If all conditions are met, relay is considered an \"offending relay\".\n        // The offending relay will be unregistered immediately, its stake will be forfeited and given to the address who reported it (msg.sender), thus incentivizing anyone to report offending relays.\n        // If reported via a relay, the forfeited stake is split between msg.sender (the relay used for reporting) and the address that reported it.\n\n        Transaction memory decoded_tx1 = decode_transaction(unsigned_tx1);\n        Transaction memory decoded_tx2 = decode_transaction(unsigned_tx2);\n\n        bytes32 hash1 = keccak256(abi.encodePacked(unsigned_tx1));\n        address addr1 = ecrecover(hash1, uint8(sig1[0]), bytesToBytes32(sig1,1), bytesToBytes32(sig1,33));\n\n        bytes32 hash2 = keccak256(abi.encodePacked(unsigned_tx2));\n        address addr2 = ecrecover(hash2, uint8(sig2[0]), bytesToBytes32(sig2,1), bytesToBytes32(sig2,33));\n\n        //checking that the same nonce is used in both transaction, with both signed by the same address and the actual data is different\n        // note: we compare the hash of the data to save gas over iterating both byte arrays\n        require( decoded_tx1.nonce == decoded_tx2.nonce, \"Different nonce\");\n        require(addr1 == addr2, \"Different signer\");\n        require(keccak256(abi.encodePacked(decoded_tx1.data)) != keccak256(abi.encodePacked(decoded_tx2.data)), \"tx.data is equal\" ) ;\n        // Checking that we do have addr1 as a staked relay\n        require( stakes[addr1].stake > 0, \"Unstaked relay\" );\n        // Checking that the relay wasn't penalized yet\n        require(!stakes[addr1].removed, \"Relay already penalized\");\n        // compensating the sender with the stake of the relay\n        uint amount = stakes[addr1].stake;\n        // move ownership of relay\n        stakes[addr1].owner = msg.sender;\n        emit Penalized(addr1, msg.sender, amount);\n        remove_relay_by_owner(addr1);\n    }\n\n    function bytesToBytes32(bytes memory b, uint offset) private pure returns (bytes32) {\n        bytes32 out;\n        for (uint i = 0; i < 32; i++) {\n            out |= bytes32(b[offset + i] & 0xFF) >> (i * 8);\n        }\n        return out;\n    }\n\n}\n",
  "sourcePath": "tabookey-gasless/contracts/RelayHub.sol",
  "compiler": {
    "name": "solc",
    "version": "0.4.24+commit.e67f0147.Emscripten.clang"
  },
  "schemaVersion": "2.0.1",
  "updatedAt": "2019-03-05T00:35:33.408Z"
}